{
  "_format": "hh-sol-artifact-1",
  "contractName": "ChiknMarketPlaceNFT",
  "sourceName": "contracts/ChiknMarketPlaceNFT.sol",
  "abi": [
    {
      "inputs": [
        {
          "internalType": "string",
          "name": "_name",
          "type": "string"
        },
        {
          "internalType": "string",
          "name": "_symbol",
          "type": "string"
        }
      ],
      "stateMutability": "nonpayable",
      "type": "constructor"
    },
    {
      "anonymous": false,
      "inputs": [
        {
          "indexed": true,
          "internalType": "address",
          "name": "owner",
          "type": "address"
        },
        {
          "indexed": true,
          "internalType": "address",
          "name": "approved",
          "type": "address"
        },
        {
          "indexed": true,
          "internalType": "uint256",
          "name": "tokenId",
          "type": "uint256"
        }
      ],
      "name": "Approval",
      "type": "event"
    },
    {
      "anonymous": false,
      "inputs": [
        {
          "indexed": true,
          "internalType": "address",
          "name": "owner",
          "type": "address"
        },
        {
          "indexed": true,
          "internalType": "address",
          "name": "operator",
          "type": "address"
        },
        {
          "indexed": false,
          "internalType": "bool",
          "name": "approved",
          "type": "bool"
        }
      ],
      "name": "ApprovalForAll",
      "type": "event"
    },
    {
      "anonymous": false,
      "inputs": [
        {
          "indexed": true,
          "internalType": "address",
          "name": "from",
          "type": "address"
        },
        {
          "indexed": true,
          "internalType": "address",
          "name": "to",
          "type": "address"
        },
        {
          "indexed": true,
          "internalType": "uint256",
          "name": "tokenId",
          "type": "uint256"
        }
      ],
      "name": "Transfer",
      "type": "event"
    },
    {
      "inputs": [
        {
          "internalType": "address",
          "name": "to",
          "type": "address"
        },
        {
          "internalType": "uint256",
          "name": "tokenId",
          "type": "uint256"
        }
      ],
      "name": "approve",
      "outputs": [],
      "stateMutability": "nonpayable",
      "type": "function"
    },
    {
      "inputs": [
        {
          "internalType": "address",
          "name": "owner",
          "type": "address"
        }
      ],
      "name": "balanceOf",
      "outputs": [
        {
          "internalType": "uint256",
          "name": "",
          "type": "uint256"
        }
      ],
      "stateMutability": "view",
      "type": "function"
    },
    {
      "inputs": [
        {
          "internalType": "uint256",
          "name": "tokenId",
          "type": "uint256"
        }
      ],
      "name": "getApproved",
      "outputs": [
        {
          "internalType": "address",
          "name": "",
          "type": "address"
        }
      ],
      "stateMutability": "view",
      "type": "function"
    },
    {
      "inputs": [
        {
          "internalType": "address",
          "name": "owner",
          "type": "address"
        },
        {
          "internalType": "address",
          "name": "operator",
          "type": "address"
        }
      ],
      "name": "isApprovedForAll",
      "outputs": [
        {
          "internalType": "bool",
          "name": "",
          "type": "bool"
        }
      ],
      "stateMutability": "view",
      "type": "function"
    },
    {
      "inputs": [
        {
          "internalType": "address",
          "name": "recipient",
          "type": "address"
        },
        {
          "internalType": "string",
          "name": "tokenURI",
          "type": "string"
        }
      ],
      "name": "mintChiknMarketPlaceNFT",
      "outputs": [
        {
          "internalType": "uint256",
          "name": "",
          "type": "uint256"
        }
      ],
      "stateMutability": "nonpayable",
      "type": "function"
    },
    {
      "inputs": [],
      "name": "name",
      "outputs": [
        {
          "internalType": "string",
          "name": "",
          "type": "string"
        }
      ],
      "stateMutability": "view",
      "type": "function"
    },
    {
      "inputs": [
        {
          "internalType": "uint256",
          "name": "tokenId",
          "type": "uint256"
        }
      ],
      "name": "ownerOf",
      "outputs": [
        {
          "internalType": "address",
          "name": "",
          "type": "address"
        }
      ],
      "stateMutability": "view",
      "type": "function"
    },
    {
      "inputs": [
        {
          "internalType": "address",
          "name": "from",
          "type": "address"
        },
        {
          "internalType": "address",
          "name": "to",
          "type": "address"
        },
        {
          "internalType": "uint256",
          "name": "tokenId",
          "type": "uint256"
        }
      ],
      "name": "safeTransferFrom",
      "outputs": [],
      "stateMutability": "nonpayable",
      "type": "function"
    },
    {
      "inputs": [
        {
          "internalType": "address",
          "name": "from",
          "type": "address"
        },
        {
          "internalType": "address",
          "name": "to",
          "type": "address"
        },
        {
          "internalType": "uint256",
          "name": "tokenId",
          "type": "uint256"
        },
        {
          "internalType": "bytes",
          "name": "data",
          "type": "bytes"
        }
      ],
      "name": "safeTransferFrom",
      "outputs": [],
      "stateMutability": "nonpayable",
      "type": "function"
    },
    {
      "inputs": [
        {
          "internalType": "address",
          "name": "operator",
          "type": "address"
        },
        {
          "internalType": "bool",
          "name": "approved",
          "type": "bool"
        }
      ],
      "name": "setApprovalForAll",
      "outputs": [],
      "stateMutability": "nonpayable",
      "type": "function"
    },
    {
      "inputs": [
        {
          "internalType": "bytes4",
          "name": "interfaceId",
          "type": "bytes4"
        }
      ],
      "name": "supportsInterface",
      "outputs": [
        {
          "internalType": "bool",
          "name": "",
          "type": "bool"
        }
      ],
      "stateMutability": "view",
      "type": "function"
    },
    {
      "inputs": [],
      "name": "symbol",
      "outputs": [
        {
          "internalType": "string",
          "name": "",
          "type": "string"
        }
      ],
      "stateMutability": "view",
      "type": "function"
    },
    {
      "inputs": [
        {
          "internalType": "uint256",
          "name": "tokenId",
          "type": "uint256"
        }
      ],
      "name": "tokenURI",
      "outputs": [
        {
          "internalType": "string",
          "name": "",
          "type": "string"
        }
      ],
      "stateMutability": "view",
      "type": "function"
    },
    {
      "inputs": [
        {
          "internalType": "address",
          "name": "from",
          "type": "address"
        },
        {
          "internalType": "address",
          "name": "to",
          "type": "address"
        },
        {
          "internalType": "uint256",
          "name": "tokenId",
          "type": "uint256"
        }
      ],
      "name": "transferFrom",
      "outputs": [],
      "stateMutability": "nonpayable",
      "type": "function"
    }
  ],
  "bytecode": "0x6080604052346200031957620014f2803803806200001d816200031e565b928339810190604081830312620003195780516001600160401b03908181116200031957836200004f91840162000344565b916020938482015183811162000319576200006b920162000344565b825190828211620003035760008054926001958685811c95168015620002f8575b88861014620002e4578190601f9586811162000291575b5088908683116001146200022d57849262000221575b5050600019600383901b1c191690861b1781555b81519384116200020d5784548581811c9116801562000202575b87821014620001ee57838111620001a6575b50859284116001146200014157839495509262000135575b5050600019600383901b1c191690821b1790555b60405161113b9081620003b78239f35b01519050388062000111565b9190601f1984169585845280842093905b8782106200018e5750508385961062000174575b505050811b01905562000125565b015160001960f88460031b161c1916905538808062000166565b80878596829496860151815501950193019062000152565b8582528682208480870160051c820192898810620001e4575b0160051c019086905b828110620001d8575050620000f9565b838155018690620001c8565b92508192620001bf565b634e487b7160e01b82526022600452602482fd5b90607f1690620000e7565b634e487b7160e01b81526041600452602490fd5b015190503880620000b9565b8480528985208994509190601f198416865b8c8282106200027a575050841162000260575b505050811b018155620000cd565b015160001960f88460031b161c1916905538808062000252565b8385015186558c979095019493840193016200023f565b9091508380528884208680850160051c8201928b8610620002da575b918a91869594930160051c01915b828110620002cb575050620000a3565b8681558594508a9101620002bb565b92508192620002ad565b634e487b7160e01b83526022600452602483fd5b94607f16946200008c565b634e487b7160e01b600052604160045260246000fd5b600080fd5b6040519190601f01601f191682016001600160401b038111838210176200030357604052565b919080601f84011215620003195782516001600160401b03811162000303576020906200037a601f8201601f191683016200031e565b92818452828287010111620003195760005b818110620003a257508260009394955001015290565b85810183015184820184015282016200038c56fe608060408181526004908136101561001657600080fd5b600092833560e01c90816301ffc9a714610a255750806306fdde031461099e578063081812fc1461097e578063095ea7b31461080f57806323b872dd146107e457806342842e0e146107bc5780636352211e1461078857806370a08231146106f257806395d89b4114610630578063a22cb46514610564578063b88d4fde146104fc578063c87b56dd146103ef578063e985e9c5146103a15763ffc4483f146100be57600080fd5b3461039d578060031936011261039d576100d6610ad1565b916024359367ffffffffffffffff9485811161039957366023820112156103995761010a9036906024818601359101610ba7565b946001918260075401958660075560018060a01b03169687156103565760008781526002602052604090205461014c906001600160a01b031615155b156110b9565b60008781526002602052604090205461016f906001600160a01b03161515610146565b8782528660209860038a5287842086815401905581845260028a528784208160018060a01b0319825416179055837fddf252ad1be2c89b69c2b068fc378daa952ba7f163c4a11628f55a4df523b3ef818a51a46000878152600260205260409020546001600160a01b0316156102fc57868252600688528582209481519384116102e957506101fe8554610c4b565b601f81116102a3575b508791601f84116001146102445791839491849394610239575b50501b916000199060031b1c19161790555b51908152f35b015192503880610221565b919083601f1981168785528a8520945b8b8883831061028c5750505010610273575b505050811b019055610233565b015160001960f88460031b161c19169055388080610266565b868601518855909601959485019487935001610254565b858352888320601f850160051c8101918a86106102df575b601f0160051c019085905b8281106102d4575050610207565b8481550185906102c6565b90915081906102bb565b634e487b7160e01b835260419052602482fd5b855162461bcd60e51b8152808601899052602e60248201527f45524337323155524953746f726167653a2055524920736574206f66206e6f6e60448201526d32bc34b9ba32b73a103a37b5b2b760911b6064820152608490fd5b855162461bcd60e51b8152602081870181905260248201527f4552433732313a206d696e7420746f20746865207a65726f20616464726573736044820152606490fd5b5080fd5b8280fd5b83823461039957806003193601126103995760ff816020936103c1610ad1565b6103c9610aec565b6001600160a01b0391821683526005875283832091168252855220549151911615158152f35b503461039d57602091826003193601126104f85735600081815260026020526040902054610427906001600160a01b03161515610bde565b83526006825280832092815180948290805461044281610c4b565b918285526001918883821691826000146104d1575050600114610493575b50505061048f939291610474910386610b69565b815161047f81610b37565b5251928284938452830190610a91565b0390f35b8552868520879350859291905b8284106104b9575050508201018161047461048f610460565b8054848b0186015289955088949093019281016104a0565b60ff19168782015293151560051b86019093019350849250610474915061048f9050610460565b8380fd5b50903461039d57608036600319011261039d57610517610ad1565b61051f610aec565b9060643567ffffffffffffffff811161056057366023820112156105605761055d9381602461055393369301359101610ba7565b9160443591610d25565b51f35b8580fd5b50903461039d578160031936011261039d5761057e610ad1565b6024359081151580920361062c576001600160a01b0316913383146105ed5750338452600560205282842082855260205282842060ff1981541660ff831617905582519081527f17307eab39ab6107e8899845ad3d59bd9653f200f220920489ca2b5937696c3160203392a351f35b606490602085519162461bcd60e51b8352820152601960248201527822a9219b99189d1030b8383937bb32903a379031b0b63632b960391b6044820152fd5b8480fd5b83823461039957816003193601126103995780519082600180549061065482610c4b565b808652918181169081156106ca575060011461068f575b50505061067d8261048f940383610b69565b51918291602083526020830190610a91565b80955082526020948583205b8284106106b7575050508261048f9461067d928201019461066b565b805486850188015292860192810161069b565b61048f975061067d9450602092508693915060ff191682840152151560051b8201019461066b565b50919034610399576020366003190112610399576001600160a01b03610716610ad1565b169081156107335760208480858581526003845220549051908152f35b608490602085519162461bcd60e51b8352820152602960248201527f4552433732313a2061646472657373207a65726f206973206e6f7420612076616044820152683634b21037bbb732b960b91b6064820152fd5b5082346107b95760203660031901126107b957506107a860209235610c25565b90516001600160a01b039091168152f35b80fd5b8382346103995761055d6107cf36610b02565b908451926107dc84610b37565b868452610d25565b8382346103995761055d6107f736610b02565b9161080a6108058433610dc0565b610cc3565b610e88565b50903461039d578160031936011261039d57610829610ad1565b602435916001600160a01b0390818061084186610c25565b1693169280841461093157803314908115610912575b50156108a95783865260205283852080546001600160a01b0319168317905561087f83610c25565b169251927f8c5be1e5ebec7d5bd14f71427d1e84f3dd0314c0f7b2291e5b200ac8c7c3b9258585a4f35b608490602086519162461bcd60e51b8352820152603d60248201527f4552433732313a20617070726f76652063616c6c6572206973206e6f7420746f60448201527f6b656e206f776e6572206f7220617070726f76656420666f7220616c6c0000006064820152fd5b90508652600560205284862033875260205260ff858720541638610857565b855162461bcd60e51b8152602081840152602160248201527f4552433732313a20617070726f76616c20746f2063757272656e74206f776e656044820152603960f91b6064820152608490fd5b5082346107b95760203660031901126107b957506107a860209235610c85565b8382346103995781600319360112610399578051908280546109bf81610c4b565b808552906001908181169081156106ca57506001146109ea5750505061067d8261048f940383610b69565b94508180526020948583205b828410610a12575050508261048f9461067d928201019461066b565b80548685018801529286019281016109f6565b8490843461039d57602036600319011261039d573563ffffffff60e01b811680910361039d57602092506380ac58cd60e01b8114908115610a80575b8115610a6f575b5015158152f35b6301ffc9a760e01b14905083610a68565b635b5e139f60e01b81149150610a61565b919082519283825260005b848110610abd575050826000602080949584010152601f8019910116010190565b602081830181015184830182015201610a9c565b600435906001600160a01b0382168203610ae757565b600080fd5b602435906001600160a01b0382168203610ae757565b6060906003190112610ae7576001600160a01b03906004358281168103610ae757916024359081168103610ae7579060443590565b6020810190811067ffffffffffffffff821117610b5357604052565b634e487b7160e01b600052604160045260246000fd5b90601f8019910116810190811067ffffffffffffffff821117610b5357604052565b67ffffffffffffffff8111610b5357601f01601f191660200190565b929192610bb382610b8b565b91610bc16040519384610b69565b829481845281830111610ae7578281602093846000960137010152565b15610be557565b60405162461bcd60e51b8152602060048201526018602482015277115490cdcc8c4e881a5b9d985b1a59081d1bdad95b88125160421b6044820152606490fd5b6000908152600260205260409020546001600160a01b0316610c48811515610bde565b90565b90600182811c92168015610c7b575b6020831014610c6557565b634e487b7160e01b600052602260045260246000fd5b91607f1691610c5a565b600081815260026020526040902054610ca8906001600160a01b03161515610bde565b6000908152600460205260409020546001600160a01b031690565b15610cca57565b60405162461bcd60e51b815260206004820152602d60248201527f4552433732313a2063616c6c6572206973206e6f7420746f6b656e206f776e6560448201526c1c881bdc88185c1c1c9bdd9959609a1b6064820152608490fd5b90610d49939291610d396108058433610dc0565b610d44838383610e88565b610f98565b15610d5057565b60405162461bcd60e51b815280610d6960048201610d6d565b0390fd5b60809060208152603260208201527f4552433732313a207472616e7366657220746f206e6f6e20455243373231526560408201527131b2b4bb32b91034b6b83632b6b2b73a32b960711b60608201520190565b906001600160a01b038080610dd484610c25565b16931691838314938415610e07575b508315610df1575b50505090565b610dfd91929350610c85565b1614388080610deb565b909350600052600560205260406000208260005260205260ff604060002054169238610de3565b15610e3557565b60405162461bcd60e51b815260206004820152602560248201527f4552433732313a207472616e736665722066726f6d20696e636f72726563742060448201526437bbb732b960d91b6064820152608490fd5b90610eb091610e9684610c25565b6001600160a01b0393918416928492909183168414610e2e565b16918215610f475781610ecd91610ec686610c25565b1614610e2e565b7fddf252ad1be2c89b69c2b068fc378daa952ba7f163c4a11628f55a4df523b3ef600084815260046020526040812060018060a01b031990818154169055838252600360205260408220600019815401905584825260408220600181540190558582526002602052846040832091825416179055604051a4565b60405162461bcd60e51b8152602060048201526024808201527f4552433732313a207472616e7366657220746f20746865207a65726f206164646044820152637265737360e01b6064820152608490fd5b9293600093909291803b156110ae57948491610ff29660405180948193630a85bd0160e11b9788845233600485015260018060a01b0380921660248501526044840152608060648401528260209b8c976084830190610a91565b0393165af184918161106e575b5061105d575050503d600014611055573d61101981610b8b565b906110276040519283610b69565b81528091833d92013e5b805191826110525760405162461bcd60e51b815280610d6960048201610d6d565b01fd5b506060611031565b6001600160e01b0319161492509050565b9091508581813d83116110a7575b6110868183610b69565b8101031261062c57516001600160e01b03198116810361062c579038610fff565b503d61107c565b505050915050600190565b156110c057565b60405162461bcd60e51b815260206004820152601c60248201527f4552433732313a20746f6b656e20616c7265616479206d696e746564000000006044820152606490fdfea26469706673582212206b108e51e7f6b4f92591291569ebcdac8004c822d8a5b0ef103624799807639f64736f6c63430008100033",
  "linkReferences": {},
  "deployedLinkReferences": {}
}